{
  "_format": "hh-sol-artifact-1",
  "contractName": "CertificateRegistry",
  "sourceName": "contracts/CertificateRegistry.sol",
  "abi": [
    {
      "inputs": [],
      "stateMutability": "nonpayable",
      "type": "constructor"
    },
    {
      "inputs": [
        {
          "internalType": "address",
          "name": "owner",
          "type": "address"
        }
      ],
      "name": "OwnableInvalidOwner",
      "type": "error"
    },
    {
      "inputs": [
        {
          "internalType": "address",
          "name": "account",
          "type": "address"
        }
      ],
      "name": "OwnableUnauthorizedAccount",
      "type": "error"
    },
    {
      "anonymous": false,
      "inputs": [
        {
          "indexed": true,
          "internalType": "bytes32",
          "name": "certificateHash",
          "type": "bytes32"
        },
        {
          "indexed": true,
          "internalType": "address",
          "name": "institution",
          "type": "address"
        }
      ],
      "name": "CertificateAdded",
      "type": "event"
    },
    {
      "anonymous": false,
      "inputs": [
        {
          "indexed": true,
          "internalType": "address",
          "name": "institution",
          "type": "address"
        }
      ],
      "name": "InstitutionAuthorized",
      "type": "event"
    },
    {
      "anonymous": false,
      "inputs": [
        {
          "indexed": true,
          "internalType": "address",
          "name": "institution",
          "type": "address"
        }
      ],
      "name": "InstitutionRevoked",
      "type": "event"
    },
    {
      "anonymous": false,
      "inputs": [
        {
          "indexed": true,
          "internalType": "address",
          "name": "previousOwner",
          "type": "address"
        },
        {
          "indexed": true,
          "internalType": "address",
          "name": "newOwner",
          "type": "address"
        }
      ],
      "name": "OwnershipTransferred",
      "type": "event"
    },
    {
      "inputs": [
        {
          "internalType": "bytes32",
          "name": "certificateHash",
          "type": "bytes32"
        }
      ],
      "name": "addCertificate",
      "outputs": [],
      "stateMutability": "nonpayable",
      "type": "function"
    },
    {
      "inputs": [
        {
          "internalType": "address",
          "name": "institution",
          "type": "address"
        }
      ],
      "name": "authorizeInstitution",
      "outputs": [],
      "stateMutability": "nonpayable",
      "type": "function"
    },
    {
      "inputs": [
        {
          "internalType": "address",
          "name": "",
          "type": "address"
        }
      ],
      "name": "authorizedInstitutions",
      "outputs": [
        {
          "internalType": "bool",
          "name": "",
          "type": "bool"
        }
      ],
      "stateMutability": "view",
      "type": "function"
    },
    {
      "inputs": [],
      "name": "owner",
      "outputs": [
        {
          "internalType": "address",
          "name": "",
          "type": "address"
        }
      ],
      "stateMutability": "view",
      "type": "function"
    },
    {
      "inputs": [],
      "name": "renounceOwnership",
      "outputs": [],
      "stateMutability": "nonpayable",
      "type": "function"
    },
    {
      "inputs": [
        {
          "internalType": "address",
          "name": "institution",
          "type": "address"
        }
      ],
      "name": "revokeInstitution",
      "outputs": [],
      "stateMutability": "nonpayable",
      "type": "function"
    },
    {
      "inputs": [
        {
          "internalType": "address",
          "name": "newOwner",
          "type": "address"
        }
      ],
      "name": "transferOwnership",
      "outputs": [],
      "stateMutability": "nonpayable",
      "type": "function"
    },
    {
      "inputs": [
        {
          "internalType": "bytes32",
          "name": "certificateHash",
          "type": "bytes32"
        }
      ],
      "name": "verifyCertificate",
      "outputs": [
        {
          "internalType": "bool",
          "name": "",
          "type": "bool"
        }
      ],
      "stateMutability": "view",
      "type": "function"
    }
  ],
  "bytecode": "0x608060405234801561001057600080fd5b5033600073ffffffffffffffffffffffffffffffffffffffff168173ffffffffffffffffffffffffffffffffffffffff16036100845760006040517f1e4fbdf700000000000000000000000000000000000000000000000000000000815260040161007b919061019e565b60405180910390fd5b6100938161009960201b60201c565b506101b9565b60008060009054906101000a900473ffffffffffffffffffffffffffffffffffffffff169050816000806101000a81548173ffffffffffffffffffffffffffffffffffffffff021916908373ffffffffffffffffffffffffffffffffffffffff1602179055508173ffffffffffffffffffffffffffffffffffffffff168173ffffffffffffffffffffffffffffffffffffffff167f8be0079c531659141344cd1fd0a4f28419497f9722a3daafe3b4186f6b6457e060405160405180910390a35050565b600073ffffffffffffffffffffffffffffffffffffffff82169050919050565b60006101888261015d565b9050919050565b6101988161017d565b82525050565b60006020820190506101b3600083018461018f565b92915050565b610902806101c86000396000f3fe608060405234801561001057600080fd5b50600436106100885760003560e01c8063850c17681161005b578063850c1768146100ff5780638da5cb5b1461012f578063bd4d8bcb1461014d578063f2fde38b1461016957610088565b806316b784fe1461008d5780631c67494e146100bd578063715018a6146100d9578063750f9f87146100e3575b600080fd5b6100a760048036038101906100a291906106f3565b610185565b6040516100b4919061073b565b60405180910390f35b6100d760048036038101906100d291906106f3565b6101a5565b005b6100e161024b565b005b6100fd60048036038101906100f8919061078c565b61025f565b005b6101196004803603810190610114919061078c565b6103be565b604051610126919061073b565b60405180910390f35b6101376103e8565b60405161014491906107c8565b60405180910390f35b610167600480360381019061016291906106f3565b610411565b005b610183600480360381019061017e91906106f3565b6104b7565b005b60026020528060005260406000206000915054906101000a900460ff1681565b6101ad61053d565b6000600260008373ffffffffffffffffffffffffffffffffffffffff1673ffffffffffffffffffffffffffffffffffffffff16815260200190815260200160002060006101000a81548160ff0219169083151502179055508073ffffffffffffffffffffffffffffffffffffffff167f5f2c961a0db2d72fa01bfae36aaca642457678d9c63adaca86c8cb1b3d1230f460405160405180910390a250565b61025361053d565b61025d60006105c4565b565b600260003373ffffffffffffffffffffffffffffffffffffffff1673ffffffffffffffffffffffffffffffffffffffff16815260200190815260200160002060009054906101000a900460ff166102eb576040517f08c379a00000000000000000000000000000000000000000000000000000000081526004016102e290610840565b60405180910390fd5b6001600082815260200190815260200160002060009054906101000a900460ff161561034c576040517f08c379a0000000000000000000000000000000000000000000000000000000008152600401610343906108ac565b60405180910390fd5b600180600083815260200190815260200160002060006101000a81548160ff0219169083151502179055503373ffffffffffffffffffffffffffffffffffffffff16817f252a09b199a2cda362218e6d1492ad417c0fb0123976e6bce284e11dc7cfd17f60405160405180910390a350565b60006001600083815260200190815260200160002060009054906101000a900460ff169050919050565b60008060009054906101000a900473ffffffffffffffffffffffffffffffffffffffff16905090565b61041961053d565b6001600260008373ffffffffffffffffffffffffffffffffffffffff1673ffffffffffffffffffffffffffffffffffffffff16815260200190815260200160002060006101000a81548160ff0219169083151502179055508073ffffffffffffffffffffffffffffffffffffffff167f2aef8a157b05c49aaaeebd094bf2b10b2b90835af1fd87c288f6effa9a6a243460405160405180910390a250565b6104bf61053d565b600073ffffffffffffffffffffffffffffffffffffffff168173ffffffffffffffffffffffffffffffffffffffff16036105315760006040517f1e4fbdf700000000000000000000000000000000000000000000000000000000815260040161052891906107c8565b60405180910390fd5b61053a816105c4565b50565b610545610688565b73ffffffffffffffffffffffffffffffffffffffff166105636103e8565b73ffffffffffffffffffffffffffffffffffffffff16146105c257610586610688565b6040517f118cdaa70000000000000000000000000000000000000000000000000000000081526004016105b991906107c8565b60405180910390fd5b565b60008060009054906101000a900473ffffffffffffffffffffffffffffffffffffffff169050816000806101000a81548173ffffffffffffffffffffffffffffffffffffffff021916908373ffffffffffffffffffffffffffffffffffffffff1602179055508173ffffffffffffffffffffffffffffffffffffffff168173ffffffffffffffffffffffffffffffffffffffff167f8be0079c531659141344cd1fd0a4f28419497f9722a3daafe3b4186f6b6457e060405160405180910390a35050565b600033905090565b600080fd5b600073ffffffffffffffffffffffffffffffffffffffff82169050919050565b60006106c082610695565b9050919050565b6106d0816106b5565b81146106db57600080fd5b50565b6000813590506106ed816106c7565b92915050565b60006020828403121561070957610708610690565b5b6000610717848285016106de565b91505092915050565b60008115159050919050565b61073581610720565b82525050565b6000602082019050610750600083018461072c565b92915050565b6000819050919050565b61076981610756565b811461077457600080fd5b50565b60008135905061078681610760565b92915050565b6000602082840312156107a2576107a1610690565b5b60006107b084828501610777565b91505092915050565b6107c2816106b5565b82525050565b60006020820190506107dd60008301846107b9565b92915050565b600082825260208201905092915050565b7f4e6f7420617574686f72697a656420696e737469747574696f6e000000000000600082015250565b600061082a601a836107e3565b9150610835826107f4565b602082019050919050565b600060208201905081810360008301526108598161081d565b9050919050565b7f436572746966696361746520616c726561647920657869737473000000000000600082015250565b6000610896601a836107e3565b91506108a182610860565b602082019050919050565b600060208201905081810360008301526108c581610889565b905091905056fea2646970667358221220b22a6ac53d6f37d32d80284b6b70ae66bfdf79ab77c15356befc3b2eb430c43264736f6c634300081c0033",
  "linkReferences": {},
  "deployedLinkReferences": {}
}